:020000040800F2
:1000000000C00020C93C00081B3D00081D3D000841
:100010002D3D00082F3D0008313D00080000000084
:10002000000000000000000000000000333D000858
:10003000353D000800000000373D0008393D00084C
:10004000193D0008193D0008193D0008193D000838
:10005000193D0008193D0008193D0008193D000828
:10006000193D0008193D0008193D0008193D000818
:10007000193D0008193D0008193D0008193D000808
:10008000193D0008193D0008193D0008193D0008F8
:10009000193D0008193D0008193D0008193D0008E8
:1000A000193D0008193D0008193D0008193D0008D8
:1000B000193D0008193D0008290F0008193D0008E6
:1000C000193D0008193D0008193D0008193D0008B8
:1000D000193D0008293A0008AD110008193D000833
:1000E000193D0008193D0008193D0008193D000898
:1000F000193D0008193D0008193D0008193D000888
:10010000193D0008193D0008193D0008193D000877
:10011000193D0008193D0008193D0008193D000867
:10012000193D0008193D0008193D0008193D000857
:1001300000000000000000000000000000000000BF
:1001400000000000000000000000000000000000AF
:10015000000000000000000000000000000000009F
:10016000000000000000000000000000000000008F
:10017000000000000000000000000000000000007F
:10018000000000000000000000000000000000006F
:10019000000000000000000000000000000000005F
:1001A000000000000000000000000000000000004F
:1001B000000000000000000000000000000000003F
:1001C000000000000000000000000000000000002F
:1001D000000000000000000000000000000000001F
:0401E0005FF8E0F1F3
:1001E80010B5054C237833B9044B13B10448AFF369
:1001F80000800123237010BDCC0600200000000001
:10020800348E000808B5034B1BB103490348AFF30C
:10021800008008BD00000000D0060020348E0008D1
:10022800034613F8012B002AFBD1181A013870472E
:1002380081F0004102E000BF83F0004330B54FEA8F
:1002480041044FEA430594EA050F08BF90EA020FFC
:100258001FBF54EA000C55EA020C7FEA645C7FEA8F
:10026800655C00F0E2804FEA5454D4EB5555B8BFB2
:100278006D420CDD2C4480EA020281EA030382EA23
:10028800000083EA010180EA020281EA0303362DB5
:1002980088BF30BD11F0004F4FEA01314FF4801C88
:1002A8004CEA113102D0404261EB410113F0004F9A
:1002B8004FEA03334CEA133302D0524263EB430351
:1002C80094EA050F00F0A780A4F10104D5F1200EEF
:1002D8000DDB02FA0EFC22FA05F2801841F100014A
:1002E80003FA0EF2801843FA05F359410EE0A5F11E
:1002F80020050EF1200E012A03FA0EFC28BF4CF04F
:10030800020C43FA05F3C01851EBE37101F0004504
:1003180007D54FF0000EDCF1000C7EEB00006EEB11
:100328000101B1F5801F1BD3B1F5001F0CD349089B
:100338005FEA30004FEA3C0C04F101044FEA4452F2
:1003480012F5800F80F09A80BCF1004F08BF5FEA79
:10035800500C50F1000041EB045141EA050130BD59
:100368005FEA4C0C404141EB010111F4801FA4F1FC
:100378000104E9D191F0000F04BF01460020B1FA51
:1003880081F308BF2033A3F10B03B3F120020CDA89
:100398000C3208DD02F1140CC2F10C0201FA0CF067
:1003A80021FA02F10CE002F11402D8BFC2F1200CCC
:1003B80001FA02F120FA0CFCDCBF41EA0C01904082
:1003C800E41AA2BF01EB0451294330BD6FEA0404CB
:1003D8001F3C1CDA0C340EDC04F11404C4F12002B6
:1003E80020FA04F001FA02F340EA030021FA04F3C8
:1003F80045EA030130BDC4F10C04C4F1200220FA1F
:1004080002F001FA04F340EA0300294630BD21FA5C
:1004180004F0294630BD94F0000F83F4801306BF22
:1004280081F480110134013D4EE77FEA645C18BF16
:100438007FEA655C29D094EA050F08BF90EA020FAD
:1004480005D054EA000C04BF1946104630BD91EAA5
:10045800030F1EBF0021002030BD5FEA545C05D1A8
:100468004000494128BF41F0004130BD14F58004E7
:100478003CBF01F5801130BD01F0004545F0FE415B
:1004880041F470014FF0000030BD7FEA645C1ABF90
:10049800194610467FEA655C1CBF0B46024650EAC7
:1004A800013406BF52EA033591EA030F41F40021F3
:1004B80030BD00BF90F0000F04BF0021704730B579
:1004C8004FF4806404F132044FF000054FF000014E
:1004D80050E700BF90F0000F04BF0021704730B50F
:1004E8004FF4806404F1320410F0004548BF4042E4
:1004F8004FF000013EE700BF42004FEAE2014FEA39
:1005080031014FEA02701FBF12F07F4393F07F4F13
:1005180081F06051704792F0000F14BF93F07F4F45
:10052800704730B54FF4607401F0004521F0004188
:1005380020E700BF50EA010208BF704730B54FF00E
:1005480000050AE050EA010208BF704730B511F013
:10055800004502D5404261EB41014FF4806404F14B
:1005680032045FEA915C3FF4DCAE4FF003025FEACD
:10057800DC0C18BF03325FEADC0C18BF033202EB55
:10058800DC02C2F1200300FA03FC20FA02F001FAAF
:1005980003FE40EA0E0021FA02F11444C1E600BF4E
:1005A80070B54FF0FF0C4CF4E06C1CEA11541DBF01
:1005B8001CEA135594EA0C0F95EA0C0F00F0DEF8CC
:1005C8002C4481EA030621EA4C5123EA4C5350EAB1
:1005D800013518BF52EA033541F4801143F4801302
:1005E80038D0A0FB02CE4FF00005E1FB02E506F093
:1005F8000042E0FB03E54FF00006E1FB03569CF0E8
:10060800000F18BF4EF0010EA4F1FF04B6F5007FED
:1006180064F5407404D25FEA4E0E6D4146EB06065F
:1006280042EAC62141EA55514FEAC52040EA5E50E8
:100638004FEACE2EB4F1FD0C88BFBCF5E06F1ED892
:10064800BEF1004F08BF5FEA500E50F1000041EBC9
:10065800045170BD06F0004646EA010140EA020076
:1006680081EA0301B4EB5C04C2BFD4EB0C0541EA98
:10067800045170BD41F480114FF0000E013C00F3AD
:10068800AB8014F1360FDEBF002001F0004170BDD1
:10069800C4F10004203C35DA0C341BDC04F11404EA
:1006A800C4F1200500FA05F320FA04F001FA05F276
:1006B80040EA020001F0004221F0004110EBD37043
:1006C80021FA04F642EB06015EEA430E08BF20EA6F
:1006D800D37070BDC4F10C04C4F1200500FA04F312
:1006E80020FA05F001FA04F240EA020001F00041A4
:1006F80010EBD37041F100015EEA430E08BF20EA17
:10070800D37070BDC4F1200500FA05F24EEA020E5E
:1007180020FA04F301FA05F243EA020321FA04F08D
:1007280001F0004121FA04F220EA020000EBD37044
:100738005EEA430E08BF20EAD37070BD94F0000F44
:100748000FD101F00046400041EB010111F4801F78
:1007580008BF013CF7D041EA060195F0000F18BF29
:10076800704703F00046520043EB030313F4801F65
:1007780008BF013DF7D043EA0603704794EA0C0F1F
:100788000CEA135518BF95EA0C0F0CD050EA410635
:1007980018BF52EA4306D1D181EA030101F00041B2
:1007A8004FF0000070BD50EA410606BF10461946DA
:1007B80052EA430619D094EA0C0F02D150EA0136E6
:1007C80013D195EA0C0F05D152EA03361CBF104627
:1007D80019460AD181EA030101F0004141F0FE41C6
:1007E80041F470014FF0000070BD41F0FE4141F44A
:1007F800780170BD70B54FF0FF0C4CF4E06C1CEA4A
:1008080011541DBF1CEA135594EA0C0F95EA0C0FFE
:1008180000F0A7F8A4EB050481EA030E52EA0335B9
:100828004FEA013100F088804FEA03334FF08055DA
:1008380045EA131343EA12634FEA022245EA111507
:1008480045EA10654FEA00260EF000419D4208BFB8
:10085800964244F1FD0404F5407402D25B084FEA65
:100868003202B61A65EB03055B084FEA32024FF411
:1008780080104FF4002CB6EB020E75EB030E22BF6E
:10088800B61A754640EA0C005B084FEA3202B6EB2E
:10089800020E75EB030E22BFB61A754640EA5C00DD
:1008A8005B084FEA3202B6EB020E75EB030E22BF6D
:1008B800B61A754640EA9C005B084FEA3202B6EB6E
:1008C800020E75EB030E22BFB61A754640EADC002D
:1008D80055EA060E18D04FEA051545EA16754FEA8F
:1008E80006164FEAC30343EA52734FEAC2025FEAAD
:1008F8001C1CC0D111F4801F0BD141EA00014FF03C
:1009080000004FF0004CB6E711F4801F04BF01430C
:100918000020B4F1FD0C88BFBCF5E06F3FF6AFAE28
:10092800B5EB030C04BFB6EB020C5FEA500C50F1B8
:10093800000041EB045170BD0EF0004E4EEA11313B
:1009480014EB5C04C2BFD4EB0C0541EA045170BD42
:1009580041F480114FF0000E013C90E645EA060E86
:100968008DE60CEA135594EA0C0F08BF95EA0C0FB4
:100978003FF43BAF94EA0C0F0AD150EA01347FF4FC
:1009880034AF95EA0C0F7FF425AF104619462CE7D3
:1009980095EA0C0F06D152EA03353FF4FDAE104636
:1009A800194622E750EA410618BF52EA43067FF487
:1009B800C5AE50EA41047FF40DAF52EA43057FF417
:1009C800EBAE12E74FF0FF3C06E000BF4FF0010C22
:1009D80002E000BF4FF0010C4DF804CD4FEA410C86
:1009E8007FEA6C5C4FEA430C18BF7FEA6C5C1BD053
:1009F80001B050EA410C0CBF52EA430C91EA030FD4
:100A080002BF90EA020F0020704710F1000F91EA30
:100A1800030F58BF994208BF90422CBFD8176FEAFE
:100A2800E37040F0010070474FEA410C7FEA6C5CCC
:100A380002D150EA013C07D14FEA430C7FEA6C5CD3
:100A4800D6D152EA033CD3D05DF8040B704700BFFF
:100A58008446104662468C461946634600E000BF4D
:100A680001B5FFF7B7FF002848BF10F1000F01BD1F
:100A78004DF808EDFFF7F4FF0CBF012000205DF8EA
:100A880008FB00BF4DF808EDFFF7EAFF34BF01206F
:100A980000205DF808FB00BF4DF808EDFFF7E0FF08
:100AA80094BF012000205DF808FB00BF4DF808ED59
:100AB800FFF7CEFF94BF012000205DF808FB00BFC0
:100AC8004DF808EDFFF7C4FF34BF012000205DF8A2
:100AD80008FB00BF4FEA410C7FEA6C5C02D150EA88
:100AE800013C0AD14FEA430C7FEA6C5C02D152EA1E
:100AF800033C02D14FF0000070474FF001007047EF
:100B08004FEA410212F5001215D211D56FF478732D
:100B1800B3EB625212D94FEAC12343F0004343EAD0
:100B2800505311F0004F23FA02F018BF40427047AB
:100B38004FF00000704750EA013005D111F0004035
:100B480008BF6FF0004070474FF00000704700BFCB
:100B580053B94AB9002908BF00281CBF4FF0FF311C
:100B68004FF0FF3000F07AB9ADF1080C6DE904CE12
:100B780000F006F8DDF804E0DDE9022304B0704770
:100B88002DE9F0478C460E460446089D002B50D1AF
:100B98008A4217466CD9B2FA82FEBEF1000F0BD01A
:100BA800CEF1200C01FA0EF620FA0CFC02FA0EF730
:100BB8004CEA060C00FA0EF43A0CBCFBF2F9BBB294
:100BC80002FB19CC09FB03FA4FEA144848EA0C4621
:100BD800B2450AD9F61909F1FF3180F02581B245ED
:100BE80040F22281A9F102093E44A6EB0A06B6FBAF
:100BF800F2F002FB106600FB03F3A4B244EA0644D9
:100C0800A34209D9E41900F1FF3280F00B81A34215
:100C180040F2088102383C440021E41A40EA0940C5
:100C2800002D62D0002324FA0EF42C606B60BDE81E
:100C3800F0878B4207D9002D55D0002185E8410067
:100C48000846BDE8F087B3FA83F1002940F08F80A9
:100C5800B34202D3824200F2FC80841A66EB030698
:100C68000120B446002D40D085E81010BDE8F0877B
:100C780012B90127B7FBF2F7B7FA87FEBEF1000FEA
:100C880035D10121F61B4FEA174C1FFA87F8B6FB3E
:100C9800FCF20CFB126608FB02F0230C43EA064642
:100CA800B04207D9F61902F1FF3302D2B04200F27E
:100CB800D2801A46361AB6FBFCF00CFB106608FB0D
:100CC80000F8A3B243EA0644A04507D9E41900F1A5
:100CD800FF3302D2A04500F2B9801846A4EB0804FD
:100CE80040EA02409CE729462846BDE8F08707FA13
:100CF8000EF7CEF1200326FA03F24FEA174CB2FBA7
:100D0800FCF11FFA87F80CFB112206FA0EF620FAFE
:100D180003F301FB08F933431E0C46EA0246B145CA
:100D280000FA0EF409D9F61901F1FF3280F08C802F
:100D3800B14540F2898002393E44A6EB0906B6FB6C
:100D4800FCF00CFB106200FB08F99EB246EA024672
:100D5800B14507D9F61900F1FF3371D2B1456FD902
:100D680002383E44A6EB090640EA01418FE7C1F18B
:100D7800200722FA07F88B4048EA030326FA07F40B
:100D88004FEA134EB4FBFEF91FFA83FC0EFB19441D
:100D98008E4020FA07F809FB0CFA48EA06084FEAE1
:100DA800184646EA0444A24502FA01F200FA01F69E
:100DB80008D9E41809F1FF3044D2A24542D9A9F173
:100DC80002091C44A4EB0A04B4FBFEF00EFB104419
:100DD80000FB0CFC1FFA88F848EA0444A44507D92C
:100DE800E41800F1FF3E29D2A44527D902381C4453
:100DF80040EA0940A0FB0289A4EB0C0CCC45C24692
:100E0800CE4615D312D055B1B6EB0A036CEB0E06DD
:100E180006FA07F7CB401F43CE402F606E600021D3
:100E2800BDE8F0871046F7E68946DEE64645EAD291
:100E3800B8EB020A69EB030E0138E4E77046D7E71E
:100E480018468FE78146BDE7114676E702383C44ED
:100E580044E7084606E7023A3E442BE7704700BFDE
:100E680037B50121042002F0BFFA10234FF40045E2
:100E78008DF8073003230B4C01A920468DF8063066
:100E8800ADF8045002F080F90121084602F0ACFAEE
:100E98000121054802F0CEF92946204602F0C8F99A
:100EA80003B030BD00080140000230007FB51B4C84
:100EB8000D460646FFF7D4FF204602F0D9FA012175
:100EC800042002F09DFA002301A92046ADF80A305B
:100ED800ADF80630ADF80450ADF8086002F0ACFB90
:100EE80001222046114602F006FC0121204602F0AC
:100EF8000FFC1E2301258DF80030042368468DF869
:100F080001308DF802308DF8035001F06FFF29464B
:100F1800204602F0DBFB04B070BD00BF00080040B3
:100F280008B50121164802F0E8FB18B3154B1B78E9
:100F380073B1154A13780133DBB213701378142B8D
:100F480006D100231370114A136883F0010313605C
:100F58000F4B1B7873B10F4A13780133DBB2137050
:100F68001378322B06D100231370084A136883F0D4
:100F7800010313600121BDE80840014802F0C8BB25
:100F88000008004045120020E9060020BC0121426B
:100F9800C4110020E8060020008880B2704770B5B0
:100FA8000C4601EB4205461AAC4206EB040000D1A0
:100FB80070BD34F8021B02F03FF8F5E701EB42027E
:100FC800401A914200D17047435A21F8023BF8E792
:100FD8002DE9F04700F17845B5F5802F074688469A
:100FE800164654D2C5F34909C9F58064A4B201F084
:100FF80059FFB44228BF344625F4FF6525F007059C
:10100800DFF890A005F1006551464FF4806228464C
:10101800FFF7D4FF00234FF6FF719AB2944203D82A
:101028002246414638461AE0013309EB03020AEB2F
:10103800420232F8022C8A42EFD0284602F084F8A5
:10104800002338F8131009EB030201332AF81210B1
:101058009AB29442F5D84FF4806251462846FFF779
:101068009EFFA64205F500650DD0361BB6B2B6F553
:10107800806F08EB440827444FF00009344628BF26
:101088004FF48064C0E7BDE8F04701F015BFBDE844
:10109800F08700BF981A0020024B082219680248FE
:1010A800FFF796BFEC06002004F80308082202495F
:1010B8000248FFF783BF00BFAC22002004F80308F2
:1010C800024B142219680248FFF782BF941A0020C5
:1010D80020F80308142202490248FFF76FBF00BF37
:1010E8009822002020F80308014664220148FFF7EF
:1010F8006FBF00BF40F80308F0B5284D87B007461A
:10110800284602F009FB01214FF4003002F078F97B
:101118000121042002F068F9032304268DF8023027
:1011280018231F4C69462046ADF800608DF803303F
:1011380002F02AF8082369462046ADF8003000245A
:101148008DF8036002F020F80126262301A88DF807
:1011580004308DF805408DF806408DF8076001F0E1
:1011680045FE0C2302A92846ADF812300297ADF8C7
:101178000C40ADF80E40ADF81040ADF8144002F048
:1011880019FB3246284640F2255102F075FB3146DC
:10119800284602F065FB07B0F0BD00BF00440040E0
:1011A8000008014038B540F225512D4802F08EFB69
:1011B80000283ED02A4802F07BFB40F2FE32294C40
:1011C800C5B2B4F83E3AC3F30E03934237DCB4F821
:1011D8003E3AB4F83E2AC3F30E03591C61F30E02DB
:1011E800A4F83E2AE5545D2D23D15B211D4802F069
:1011F80070FFF0B11B4B1846027801335B2AFAD115
:101208001846194902F0AAFF1849C4F8000800F066
:10121800BFFA1649164802F0A9FEB4F83E3A6FF331
:101228000E03A4F83E3AB4F83E3A43F40043A4F857
:101238003E3A4021BDE83840094802F043BB0D481A
:1012480002F00CFF4FF480620021204602F086FE77
:10125800B4F83E3A6FF30E03A4F83E3AC3E700BF72
:1012680000440040F0060020BF8E0008F00A00206D
:10127800C18E0008AC8E000870B500230D460646E6
:10128800014648784A1C2C2818D10133DBB2012BBF
:1012980014D90B4C4FF40072023104F6040002F02A
:1012A80052FE2946304602F059FF2946C4F8040A7E
:1012B800002002F053FFC4F8080A70BD1146E0E7A9
:1012C800F0060020F8B50E46164C1546B4F83E2A2E
:1012D80015496FF30E02A4F83E2A024613481F462A
:1012E80000F0B8FE06B9DDB1B8B202F025FB002265
:1012F800B4F83E3A0B49C3F30E030D48E25402F02A
:1013080035FE2EB13146074825B102F00CFF38B939
:101318002946044802F007FF003018BF0120F8BD35
:101328000120F8BDF0060020C190000800440040EC
:10133800FB8E000810B505244FF4FA7300220D49FE
:101348000D48013CFFF7BEFF14F0FF04F4D14FF441
:10135800FA73224607490848FFF7B4FF20B1074847
:1013680002F07CFE012010BD054802F077FE204601
:1013780010BD00BF508E0008538E0008568E00081E
:101388006F8E000870B505460E469AB00D4C642263
:10139800002101A802F0E2FD21464FF4FA73002271
:1013A8000948FFF78FFF33462A46084901A802F08B
:1013B8005DFE4FF4E1630022214601A8FFF782FF9A
:1013C8001AB070BD508E0008D78E0008E48E000851
:1013D80030B542F67B030446A1B07C22002101A867
:1013E800009302F0BBFD2146684602F063FE1249F5
:1013F800684602F05FFE0024104DE3B220AA1344B1
:1014080013F8801C7D290BD10C4802F04DFA0B4CC7
:101418008021204602F050FA0028F9D021B030BDD2
:10142800284602F041FA8021284602F045FA0028B1
:10143800F9D00134E1E700BF5E92000800440040A3
:1014480008B54FF47A7002F077FA0548054900F0BC
:1014580001FEBDE808404FF4FA7002F06DBA00BF13
:1014680000440040858E000870B54D4D4D4C4FF43A
:10147800FA73002229462046FFF724FF0028F6D0F9
:1014880049494A4802F033FE4749494802F02FFECD
:10149800434D484C4FF4FA73002229462046FFF783
:1014A80011FF0028F6D0444B1C461A78591C303AD4
:1014B800092A49D81D46EA1A15F8010BD2B2A0F13B
:1014C8003001092942D920F02001413919293DD993
:1014D8003A493B4802F04AFD314E3A4D4FF47A738F
:1014E800002231462846FFF7EDFE0028F6D02C4EA4
:1014F800354D4FF4FA73002231462846FFF7E2FED5
:101508000028F6D031492C4802F00DFE10B33323E1
:1015180084F83C3A94F83C1A2D4802F027FD94F8D8
:101528003C3A332B1FD11E4D2A4C4FF4E163002265
:1015380029462046FFF7C6FE0028F6D04FF47A70F9
:10154800BDE8704002F0F8B90B46AEE7224482F8D5
:10155800240AB0E72049184802F0E5FD08B136230F
:10156800D6E73923D4E7362B0BD10D4D1B4C4FF45E
:10157800E163002229462046FFF7A4FE0028F6D0A2
:10158800DCE7392BDAD1064D154C4FF4E163002224
:1015980029462046FFF796FE0028F6D0CEE700BF82
:1015A800508E0008FE8E0008908F0008FC10002066
:1015B800081100200F8F0008F006002014110020E9
:1015C800178F0008218F00082D8F0008368F00081C
:1015D800428F0008508F00083B8F00086C8F00086E
:1015E800928F000837B50124264B1C70FFF784FD45
:1015F8002146102001F0F8FE0323102201A92248F9
:10160800ADF804308DF806308DF8072001F0BCFDE8
:101618001E4B1B789BBB1C4C0221204601F006FE8A
:101628004FF47A7002F088F94FF47A7002F084F976
:101638000221204601F0FCFD0121204601F0F6FDC3
:1016480040F24C4002F078F90121204601F0F0FD0B
:10165800FFF7F6FE4FF4FA7300220D490D48FFF725
:1016680031FEFFF767FE0028D6D0FFF7FDFE0A4DD2
:101678000A4C29462046FFF785FE0028F9D003B01A
:1016880030BD00BFC411002000100140581A0020CE
:10169800508E0008898E0008958E00089A8E0008E2
:1016A80010B5044C214600F007F82046BDE810406C
:1016B800FFF78EBEF00C0020F8B505460C46002753
:1016C800FEF7AEFD2A4601232B4E874203F1FF3178
:1016D8003ADA92F800E035684FEA9E0E15F80EE007
:1016E800E51805F801EC157807F1010E2D01704594
:1016F80005F030051FDD92F801C003F1010E45EA3F
:101708001C1C3568033215F80C5007F1020CE5541F
:1017180012F8025C60454FEA850505F03C0503F1C7
:10172800040314DC3268CB1C525D043104F80E202B
:101738003D22E25408E032682144525D981CE2548C
:101748003D228A70D91C225400206054F8BD12F83A
:10175800011C04EB030E45EA911531680337495D16
:101768000EF8031C12F8011C356801F03F01695C92
:101778000EF8021CA9E700BF0000002010B50446BF
:1017880002F0A7FC08B1001B10BD4FF0FF3010BDE0
:101798002DE9F84F0E4605460024DFF874802978B5
:1017A80019B931550846BDE8F88FD8F800703846A1
:1017B800FFF7E4FF697881463846FFF7DFFF834685
:1017C800C0F3011040EA89003055A978671C3D290B
:1017D80019D0D8F80000FFF7D1FF8246C0F3830084
:1017E80040EA0B10F055E97804F102093D290DD0C3
:1017F800D8F80000FFF7C2FF00F03F0040EA8A1067
:10180800E71C06F8090004353C46C8E74F46FAE7E6
:1018180000000020002303604360084B836003F14D
:101828008833C36003F12943A3F59613A3F68B63AA
:101838000361A3F188334361704700BF0123456703
:10184800034610B504391C1AA24200D810BD4C68D2
:10185800043303F8044C4C68240A03F8034CCC887E
:1018680003F8024C51F8044F240E03F8014CEAE740
:1018780030B50446231A9A4201F1040100D830BD5C
:1018880011F8023C11F8035C1B0443EA052311F824
:10189800045C2B4311F8015C43EA056344F8043BFC
:1018A800E8E700002DE9F04FCBB00446D0F80080FF
:1018B800051D4022E0CD0AA8FFF7DAFFDDF828A0D1
:1018C800D74A86EA070352442B4042447B401344DC
:1018D800D4490B9A05EB736311440F4485EA06015A
:1018E800009219400C9AD04871401044394403EBD7
:1018F8003151019206440D9A85EA0300084002928C
:1019080068403044C94A029E01EBF0303244154425
:1019180083EA010202405A402A440E9D00EBB2229B
:101928000395039EC24DDDF83CC035441D4481EA51
:10193800000313404B402B44BE4D02EB73636544D8
:101948000D4480EA0201194041402944109D03EBEF
:1019580031510495049EB84DDDF844903544054452
:1019680082EA0300084050402844B44D01EBF030AF
:101978004D44154483EA010202405A402A44129D0C
:1019880000EBB2220595059EAD4DDDF858E03544D3
:101998001D4481EA000313404B402B44139D02EB86
:1019A80073630695069EA74DDDF8608035440D44A7
:1019B80080EA0201194041402944149D03EB31514A
:1019C8000795A5F524454F3D054482EA03000840E4
:1019D80050402844159D01EBF0300895089E9A4D1B
:1019E800DFF8CCB23544154483EA010202405A407C
:1019F8002A44964D00EBB22275441D4481EA000347
:101A080013404B402B44179D02EB73630995099EC5
:101A18008F4D199F35440D4480EA02011940414019
:101A280029448C4D03EB31514544054482EA0300B7
:101A3800084050402844884D01EBF0303D4415449F
:101A480083EA010202405A40009E2A44834D00EB7B
:101A5800B22235441D4480EA02030B404340049EF1
:101A68002B447F4D02EBF36335440D4482EA0301B6
:101A780001405140089E29447A4D03EBF151354409
:101A8800054483EA0100104058402844764D01EB94
:101A9800B0405544154481EA00021A404A402A449D
:101AA800724D00EB323265441D4480EA02030B405C
:101AB8004340079E2B446E4D02EBF36335440D44BF
:101AC80082EA03010140514029446A4D03EBF15178
:101AD8003D44054483EA010010405840039E2844D1
:101AE800654D01EBB0403544154481EA00021A40C7
:101AF8004A40069E2A44614D00EB323235441D446B
:101B080080EA02030B4043402B445D4D02EBF36334
:101B180045440D4482EA030101405140029E294494
:101B2800584D03EBF1513544284483EA010515402B
:101B38005D40059E2844544D01EBB04035442A448D
:101B480081EA00051D404D40099E2A444F4D00EB97
:101B5800323235442B4480EA02050D404540019E4F
:101B68002B444B4D02EBF3633544294482EA0305C9
:101B7800054055402944474D03EBF1514D44284455
:101B880083EA010515405D40054401EBB54581EA4E
:101B98000500F344934403EA00024A405A44ACF572
:101BA800B82B05EB3232ABF2BE6B50405B44059E5E
:101BB8000344394802EB33733044084485EA020190
:101BC8005940089E0144354803EB7151304405449F
:101BD80082EA030048400544314801EB354540445A
:101BE800104483EA01026A40009E02442D4805EB36
:101BF80072223044184481EA05035340039E03448B
:101C0800294802EB33733044084485EA02015940FD
:101C18000144264803EB7151484405444AE000BF9B
:101C280078A46AD756B7C7E8DB702024EECEBDC1CA
:101C3800AF0F7CF52AC68747134630A8019546FDA5
:101C4800D8988069AFF7448BBED75C892211906B16
:101C5800937198FD8E4379A62108B44962251EF632
:101C680040B340C0515A5E26AAC7B6E95D102FD6C8
:101C78005314440281E6A1D8C8FBD3E7E6CDE1219D
:101C8800D60737C3870DD5F4ED145A4505E9E3A9FE
:101C9800F8A3EFFCD9026F6781F6718722619D6D09
:101CA8000C38E5FD44EABEA4A9CFDE4B604BBBF679
:101CB8008A4C2A8D82EA03004840079E2844844DB6
:101CC80001EB30403544154483EA01024240099E45
:101CD8002A44804D00EB722235441D4481EA0003FA
:101CE80053402B447C4D02EB33735544294480EA1E
:101CF80002055D40029E2944784D03EB715135443D
:101D0800054482EA03004840049E2844744D01EBD0
:101D1800304035442A4483EA01054540069E15446F
:101D2800704A00EB75253244134481EA00026A4088
:101D38001A446D4B05EB327273440B4480EA05017B
:101D480051401944694B02EB71513B44184485EAF0
:101D580002034B40019E1844654B01EB304033446D
:101D68001D4482EA010343402B44624D00EB732378
:101D7800554463EA010A8AEA000A2A4452445E4D3D
:101D880003EBB2624D4462EA000989EA0309294477
:101D980049445A4D02EBB151454461EA030888EAC7
:101DA800020828444044564D01EB7040654460EAFF
:101DB800020C8CEA010C2B446344524D00EBF323D4
:101DC800754463EA010E029E8EEA000E2A444E4DC7
:101DD800724403EBB262354462EA000E2944079D5F
:101DE8008EEA030E7144A5F5801502EBB151A5F6F4
:101DF8008335054461EA03005040009E2844434D62
:101E080001EB704035441D4460EA02034B40059ED7
:101E18002B443F4D00EBF3233544154463EA01029C
:101E280042402A443B4D03EBB2623D440D4462EA12
:101E380000015940049E2944374D02EBB151354405
:101E4800054461EA03005040099E2844334D01EBE4
:101E5800704035442B4460EA02054D40039E1D4402
:101E68002F4B00EBF52533441A4465EA0103434040
:101E7800089E13442B4A05EBB36332440A4463EAD1
:101E880000016940019E1144274A03EBB1513244D5
:101E9800024461EA05005840069E1044234A01EBBB
:101EA800704032442A4460EA03054D4015442268D4
:101EB800134423606368034403EBF5236360A3685A
:101EC8001844E368A0601944E1604BB0BDE8F08FA6
:101ED80070BCBFBEC67E9B28FA27A1EA8530EFD426
:101EE800051D880439D0D4D9E599DBE6F87CA21F12
:101EF8006556ACC4442229F497FF2A43A72394AB20
:101F080039A093FCC3595B6592CC0C8FD15D848555
:101F18004F7EA86FE0E62CFE144301A3A111084EE2
:101F2800827E53F735F23ABDBBD2D72A91D386EBDE
:101F38002DE9F843044616460368D200C3F3C500EA
:101F480013449A42236088BF6368C0F1400584BF88
:101F5800013363606368B54203EB56730F466360F1
:101F68001ED818302A46204404F1080901F0EBFF76
:101F780004F118014846FFF795FC05F1400846456D
:101F880008D200201830721B79192044BDE8F843A4
:101F980001F0D9BF79194846FFF784FC4546ECE7BC
:101FA8000025EFE773B505460E4602680146C2F301
:101FB800C502372A94BFC2F13804C2F178046846D2
:101FC8000822FFF73DFC224628460849FFF7B0FFE4
:101FD800694628460822FFF7ABFF102205F10801E1
:101FE8003046FFF72DFC02B070BD00BF0400002092
:101FF800F0B59DB0074606A8FFF70CFC06A8FFF74A
:1020080097FF02A906A8FFF7CDFF0F4801F0AEFF22
:102018000E4D0DF107040DF117066178284601F001
:10202800A5FF14F8012F294601A802F01FF8022283
:1020380001A9384602F063F8B442EED1044802F030
:102048000DF81DB0F0BD00BFEF8F0008FB8F000832
:102058003E9200080EB4F0B5054686B00BAB53F8B7
:10206800044B0193217821B906B0BDE8F04003B0D4
:1020780070475C290CD1637802346E2B06D0722B22
:1020880016D10D21284601F00FFC11E00A21F9E7CD
:1020980025295BD16378642B1BD0732B07D1019B57
:1020A8001E681A1D0192013E16F8011F39B9023443
:1020B8008021284601F000FC0028F9D0D2E7284604
:1020C80001F0F2FB8021284601F0F6FB0028F9D048
:1020D800EAE7019B1A1D1B680192002B14D13022DC
:1020E8008DF809308DF808200DF1070616F8011F44
:1020F8000029DCD0284601F0D7FB8021284601F0D2
:10210800DBFB0028F9D0F1E7B8BF2D224FF005011D
:102118004FF0000742F210704FF00A0EBDBF8DF865
:1021280008205B420DF1090202AA93FBF0F606B9FA
:1021380037B106F130071770012700FB163301325B
:10214800013990FBFEF0F0D11170CDE7013499E729
:102158000A220023F0B51C4696460B4DB1FBF5F755
:1021680007F13006F6B2302E05FB17110655B5FB00
:10217800FEF500D123B101340133013AEED1F0BDAF
:1021880000231C46F9E700BF00CA9A3B82B00190C1
:102198000198C0F30A03C00A03B1013002B07047C6
:1021A8002DE9FF410024019001980F46ADF80C403D
:1021B8008DF80E40FFF7EAFF0425461E00F072FE78
:1021C800DFF84880B44209D300F076FEB4421BD150
:1021D8002B1F5842584104B0BDE8F081042DF3D1BB
:1021E80004F580302030C00200F0AEFF012F054614
:1021F80004F10104E6D1214603A8FFF7A9FF03A9CA
:10220800404601F0B3FEDDE70020E4E70090000857
:10221800BFF34F8F0449054BCA6802F4E0621343C9
:10222800CB60BFF34F8FFEE700ED00E00400FA0536
:10223800F0B50D4616461F46044689B0FEF736FF30
:10224800129B8DE8C0000693119B074A0593109BCB
:10225800064904930F9B204603930E9B02932B463B
:1022680001F004FF09B0F0BDAC2200204092000844
:1022780030B50D46044687B0FEF72CFF0B4A0C49D3
:1022880092F83C3A049102F61821039102F60C21C7
:102298000291084902F6242201910749204600913B
:1022A8002946FFF7C5FF07B030BD00BFF006002084
:1022B8008E910008982200209291000873B50D466F
:1022C80016460446FEF7F2FE00962B46034A0449DA
:1022D800204601F0CBFE02B070BD00BFAC2200204A
:1022E8008591000810B50C46A0B001466846FFF776
:1022F800BFFF230702D06846FFF7D2F914F0F00FAA
:1023080008D005496A46054801F0B0FE034904486B
:1023180001F02CFE20B010BD5B920008C511002012
:10232800C190000810B51446A0B00A460146684698
:10233800FFF7C4FF230702D06846FFF7B1F914F08E
:10234800F00F08D005496A46054801F08FFE044998
:10235800044801F00BFE20B010BD00BF5B920008DE
:10236800C5110020C190000810B50446A2B0FEF7C0
:10237800B1FEFEF79BFE0D4B0D4A00930D490E4B27
:1023880002A801F073FE230702D002A8FFF788F91C
:1023980014F0F00F08D0094902AA094801F066FEB6
:1023A8000749084801F0E2FD22B010BD982200203C
:1023B800AC22002063920008609200085B9200083B
:1023C800C5110020C190000813B502AC24F8020D15
:1023D80000F068FD012221460348FEF7F9FD00F0F0
:1023E8006BFD02B010BD00BF00F803080148FEF7FE
:1023F800D3BD00BF00F8030808B5044801F08CF904
:10240800BDE808404FF4E13001F0B2BA00380140AD
:1024180008B5FFF7F1FFFEF749FE074B1B78502B75
:1024280009D0FFF7E3FF054B18804EF6ED50BDE8E5
:102438000840FFF7C9BF08BDAC22002040110020AA
:1024480010B5154C154B22681340B3F1005F1DD130
:10245800134801F003FE00F01DFF72B60021114879
:1024680001F034F90021104801F0FAF900210F4871
:1024780001F0F6F90E4B0F4A1B6813600E4A136001
:10248800226882F308889847002010BD0B4801F0A5
:10249800E5FDFF2010BD00BF000001080000FE2F71
:1024A80062900008000800400038014000440040E5
:1024B800040001081C23002020230020719000083C
:1024C80070B502225749054601F02EFD28B94EF68F
:1024D800EE60FFF779FF012070BD022252492846BD
:1024E80001F022FD10B94DF6DD50F2E702224F4906
:1024F800284601F019FD10B94CF6CC40E9E7022254
:102508004B49284601F010FD28B94FF6FF70FFF738
:102518005BFFFFF77DFE02224649284601F004FDD5
:10252800044628BB444B1B780F2B19D14349444818
:1025380001F01CFD4148FEF7D7FDFEF781FF4FF47F
:10254800FA7322463F494048FEF7BCFE4FF4FA733F
:1025580022463C493D48FEF7B5FE45F65A20B8E705
:102568003B493C4801F002FD3948FEF7BDFDF4E760
:1025780002223949284601F0D7FC10B94FF6FF70FE
:10258800A7E702223549284601F0CEFC78BB00F0C7
:102598009BFC334D06462B68834326D000F08EFC07
:1025A800044628683043286000F08EFD06462868F7
:1025B800431C03D0C04300F0E9FC064604F00703BF
:1025C800072B07D004F0040204F0020104F0010014
:1025D80000F0AEFC042E03D1224801F03FFD98E73D
:1025E800214801F03BFD002070BD2048F9E7022298
:1025F8001F49284601F098FC40B94EF6ED50FFF708
:10260800E3FEF0211B48FFF76DFE64E702221A493A
:10261800284601F089FC10B94DF6DE6059E71748E5
:10262800DFE700BF91910008949100089791000896
:102638009A9100089D91000838110020F40E00209E
:10264800A0910008508E0008898E0008B3910008F8
:1026580054180020BD910008CF910008D2910008BD
:102668003C110020D5910008EE9100080B9200085B
:10267800279200082A9200082D920008309200083C
:1026880010222DE9F8432F4B2F4C1A602F4B304F57
:10269800236000F019FC23680425834314BF012339
:1026A80000232C483B6001F0D9FCDFF8C080DFF83C
:1026B800C090294E3B6813B1404601F0CFFC013D64
:1026C80015F0FF0501D1FFF7A3FDFF214846FFF7ED
:1026D80009FE4FF4FA7001F02FF9B6F83E3AC3F349
:1026E800C033A3B10F22B6F83E3A1C486FF3CF337C
:1026F800A6F83E3A1A4B1B491A70FEF7BDFDD6F8EC
:10270800080AFFF7DDFE0028D4D0BDE8F883164C90
:10271800B4F808281204CDD5B4F8082804F5816067
:1027280063F3CF32A4F80828F0220D4B0D491A7034
:1027380001F0E8F9D4F80404FFF7C2FE0028B9D084
:10274800BDE8F883301100203C1100200000FFFF95
:10275800341100203E900008F0060020F00A002006
:1027680038110020DB9000084C1200205890000817
:102778005F90000808B5024801F070FC002008BD11
:1027880048910008002307B5602101A8ADF804307E
:102798008DF80630FFF7DCFC01A9074801F0E6FBDD
:1027A80001214FF44030FFF7FBFCB0FA80F04009FC
:1027B800404203B05DF804FB289000082DE9F04F73
:1027C80097B0202200210EA801F0C8FB9E4801F016
:1027D80045FC01239D4F9E4DDFF8B4823B7029785C
:1027E80040469C4CFFF77EFD4FF4FA7001F0A4F8C8
:1027F800B4F83E3A2646C3F3C033002B00F0A2805B
:10280800B4F83E3A94496FF3CF3304F58060A4F8E6
:102818003E3AFEF731FD02229049D4F8080A01F049
:1028280083FB0028DBD18E4904F6040001F096FCF6
:1028380028B18C4B1860FEF743FCFEF74BFC884927
:10284800002001F08BFC054610B101F045FB054660
:102858008349002001F082FC044610B101F038FBE6
:1028680084B27F49002001F079FC60B103460DF184
:10287800180E00F1200C724618685968083303C214
:1028880063459646F7D1774B1968002900F0A78071
:10289800002D00F0A480002C00F0A18006AB00936E
:1028A8002A462346704801F061FB95FBF4F304FBCC
:1028B8001352002A40F09D809BB203934FF000080A
:1028C800FFF760FFDFF8ACA1039B1FFA88F9994571
:1028D800C0F09180802265490EA8FFF789FB0EA9F8
:1028E800634801F043FB0A24624DDFF86C8105F56B
:1028F8008169574B1878FFF737FD4FF4FA7001F0EC
:102908001BF8B6F83E3AC3F3C033002B00F0D88169
:10291800B6F83E3A41466FF3CF335748A6F83E3AE9
:10292800FEF7AAFC02225549D6F8080A01F0FCFA7B
:10293800002840F0D881524801F090FB0023012084
:102948003B7053E04B4CB4F8082812047FF547AFAE
:10295800B4F80828404963F3CF32A4F8082804F5EE
:10296800816001F0CFF802223C49D4F8040401F058
:10297800DBFA00287FF433AF394904F5C16001F070
:10298800EDFB28B1374B1860FEF79AFBFEF7A2FB68
:102998003349002001F0E2FB054610B101F09CFA32
:1029A80005462F49002001F0D9FB044610B101F07B
:1029B8008FFA84B22A49002001F0D0FB00283FF4A6
:1029C80062AF03460DF1180E00F1200C724618682C
:1029D8005968083303C263459646F7D153E71C4B41
:1029E80028481978FFF77EFC0020387017B0BDE83A
:1029F800F08F013360E7164B49461A782248FFF7F3
:102A080091FCB6F83E3A1B0403D4BAF80838180407
:102A1800F7D5B6F83E3AC3F3C033002B00F0C180B7
:102A2800B6F83E3A0C496FF3CF331348A6F83E3A4E
:102A3800FEF722FC02221549D6F8080A01F074FABA
:102A480040B308F101083FE78690000845120020CE
:102A580038110020F0060020DB900008989000084C
:102A68009B900008941A00209D90000842110020B5
:102A7800019100084C120020F00A0020279100085C
:102A88002A910008C69000088E910008C990000895
:102A9800959000089749984801F060FB01F018FAF2
:102AA80080B28145CDD1944B184602780133282A4B
:102AB800FAD11846914901F051FB01F009FADFF803
:102AC8006892C2B289F8000041468D4801F04EFA7A
:102AD8008C4B01229B461A80884ABBF80010A14201
:102AE8003DD3894801F0BAFA884BC3F80090039B9C
:102AF800013B9845A5DA002305F1006BDFF82C921D
:102B08000BF5803BA3429CD2D9F80020934598D975
:102B1800059300F0C7F97D4AD9F8000011680492BE
:102B2800096800F0A5FA00F0C7F9D9F80010049A6E
:102B38000B6810689E4603689E45059B2AD074481A
:102B480001F014FA4FF47A7000F0F6FE4FF47A7040
:102B580000F0F2FE4FF47A7000F0EEFE44E7114602
:102B68000020059201F0FAFABBF80010049101F078
:102B7800AFF9049909F80100BBF80010654819F885
:102B8800011001F0F3F9BBF80010059A0131ABF818
:102B98000010A2E70431C9F80010011D11600433C8
:102BA800B0E7BAF8082811047FF54BAFBAF808283F
:102BB800524963F3CF325848AAF8082800F0A2FF18
:102BC80002225649DAF8040401F0AEF900287FF42D
:102BD80038AF4849524801F0C1FA01F079F980B29A
:102BE80081457FF42EAF4E4B184602780133282AD0
:102BF800FAD11846414901F0B1FA01F069F9DFF854
:102C08002891C2B289F8000041463D4801F0AEF96A
:102C18003C4B01229B461A80384ABBF80010A1425F
:102C280033D3394801F01AFA384B05F1006BC3F871
:102C380000900023DFF8F4900BF5803BA342BFF42B
:102C480000AFD9F8002093457FF6FBAE059300F05E
:102C580029F92E4AD9F8000011680492096800F091
:102C680007FA00F029F9D9F80010049A0B681068DF
:102C78009E4603689E45059B7FF461AF0431C9F801
:102C88000010011D11600433D8E711460020059299
:102C980001F064FABBF80010049101F019F90499E5
:102CA80009F80100BBF800101A4819F8011001F0E2
:102CB8005DF9BBF80010059A0131ABF80010ACE7DC
:102CC800B5F8082812040ED5B5F80828414663F36C
:102CD800CF32A5F80828484600F014FF022211490F
:102CE800D5F8040422E6013C14F0FF047FF401AE99
:102CF80024E600BF9B900008F40E0020DB9000083B
:102D0800CC900008C2110020DD9000081823002094
:102D1800E0900008D790000854160020C9900008D9
:102D28005418002027910008421100204400002078
:102D380070B51C4D1C4E2C46B5F808381B0429D517
:102D4800184B1846027801335B2AFAD117491846FE
:102D580001F004FA164B01461860164801F006F90E
:102D6800FEF79AF9FEF7A2F9B4F808384FF6FF70A3
:102D78006FF3CF33A4F808380F4CFFF725FB2388EF
:102D88009BB22BB1208880B2FFF71EFB0023238063
:102D9800002070BD304601F061F94FF4FA7000F080
:102DA800CBFDC9E74C12002062910008BF8E0008D5
:102DB800EC0600206E9100084011002008B5FEF7CF
:102DC80075F9BDE808400249024801F0CFB800BFD4
:102DD800AC2200201190000840F0BF60024B40F484
:102DE8000030D860704700BF00ED00E010B5C27831
:102DF8000378E2B1124AD1684278C943C1F302218B
:102E0800C1F10404A2400F24807824FA01F10140A2
:102E18000A430C491201C818D2B280F8002303F003
:102E28001F005A090123834041F8223010BD0121B7
:102E38005A0903F01F0301FA03F320320149F3E7AB
:102E480000ED00E000E100E0044B04281A680CBF24
:102E580042F0040222F004021A60704710E000E019
:102E6800034A136803F0380318431060704700BF23
:102E780000200240044B1A6822F010021A601A68F7
:102E880010431860704700BF00200240034B044AFB
:102E98005A6002F188325A60704700BF0020024031
:102EA80023016745FFF7F2BF024A136943F0800325
:102EB8001361704700200240FFF7F6BF014BD86945
:102EC8008008704700200240014B186A704700BF15
:102ED80000200240024BD869C0F34000704700BF91
:102EE80000200240084BDA68D10709D4DA68520793
:102EF80008D4DB6813F0100F14BF032004207047B8
:102F080001207047022070470020024010B5044697
:102F1800FFF7E8FF012806D10CB9052010BDFFF71F
:102F2800E1FF013CF6E7002C08BF052010BD0000BA
:102F3800F8B5134C134B0746A36003F18833A3601D
:102F48004FF400500E461546FFF7E0FF042815D150
:102F5800236947F0F80743F0100323613E430A4B07
:102F680035435D804FF40050FFF7D0FF052805D0AA
:102F7800236923F01003DB04DB0C2361F8BD00BFD9
:102F8800002002402301674500F8FF1F10B50446E2
:102F98004FF40050FFF7BAFF04282BD1E443234B2A
:102FA800234AE1B29A6002F188329A601A69FF29CD
:102FB80042F010021A6113D1C4F30723FF2B1AD170
:102FC800C4F30743FF2B1FD1240EFF2C25D1042067
:102FD800164A136923F01003DB04DB0C136109E0C4
:102FE800144B4FF400501981FFF790FF0428E3D0E9
:102FF8000528EDD110BD0F4A4FF400505381FFF75B
:1030080085FF0428DCD0F3E70A4A4FF40050938187
:10301800FFF77CFF0428D7D0EAE7064BA4B2DC818F
:103028004FF40050FFF772FFE2E700BF00200240B4
:103038002301674500F8FF1F70B505464FF400509F
:103048000E46FFF763FF04280FD1084C4FF40050D9
:10305800236943F0010323612E80FFF757FF23699B
:1030680023F00103DB04DB0C236170BD0020024068
:10307800002373B506464FF400500D460193FFF741
:1030880045FF04281BD10F4C4FF40050236943F02F
:1030980001032361ABB23380FFF738FF042808D15E
:1030A80002360196019B2D0C1D804FF40050FFF74E
:1030B8002DFF236923F00103DB04DB0C236102B03D
:1030C80070BD00BF0020024038B5FFF703FF00289D
:1030D8004FF430200CBFA5250025FFF717FF042863
:1030E8002BD1164C164B4FF43020A36003F18833D4
:1030F800A360236943F020032361236943F040035D
:103108002361FFF703FF04280FD123694FF4005010
:1031180023F02003DB04DB0C2361236943F0100355
:103128002361084B1D80FFF7F1FE052805D02369B0
:1031380023F01003DB04DB0C236138BD00200240C0
:103148002301674500F8FF1F38B505464FF43020C6
:10315800FFF7DCFE042813D10A4C4FF43020236912
:1031680043F0020323616561236943F0400323614F
:10317800FFF7CCFE236923F00203DB04DB0C236199
:1031880038BD00BF00200240CB782DE9F041DA06B7
:1031980048BF8A780E8803F00F0548BF154316F01C
:1031A800FF0F1AD000214FF0010E4FF00F0C0268EC
:1031B8000EFA01F737EA06040BD18C000CFA04F872
:1031C80022EA080205FA04F4282B42EA040225D16F
:1031D800476101310829EBD10260FF2E1CD900217B
:1031E8004FF0010E4FF00F0C426801F108040EFA7F
:1031F80004F434EA06070BD18F000CFA07F822EA28
:10320800080205FA07F7282B42EA07020AD14461A7
:1032180001310829E9D14260BDE8F081482B08BF97
:103228000761D6E7482B08BF0461F1E701617047E1
:10323800416170470028164A30B500F44015B4BF04
:10324800D3695368B5F5401F84B210D1556823F08F
:10325800706325F07065556019B1420D12019440F4
:1032680023430B4A0028B4BFD361536030BDC20268
:103278004DBF0322420D1201C0F303454CBFAA40C3
:1032880004FA02F223EA020343F07063E4E700BFA2
:10329800000001400D4B1A6842F001021A6059689B
:1032A8000B4A0A405A601A6822F0847222F480326B
:1032B8001A601A6822F480221A605A6822F4FE0200
:1032C8005A604FF41F029A60704700BF0010024016
:1032D8000000FFF8014B1860704700BF0000424231
:1032E800034A536823F47C13194301435160704720
:1032F80000100240014B1860704700BF6000424256
:10330800034A536823F0030318435060704700BF13
:1033180000100240024B586800F00C00704700BFD4
:1033280000100240034A536823F0F003184350602A
:10333800704700BF00100240034A536823F4E0635B
:1033480018435060704700BF00100240034A53689A
:1033580023F4605343EAC0005060704700100240F5
:103368001C4A10B5536803F00C03042B01D0082B3A
:103378001FD0194B03605368184CC3F30313E15C67
:103388000368CB4043605168C1F30221615C23FAB2
:1033980001F181605168C1F3C221615CCB40C36017
:1033A80052680F49C2F381328A5CB3FBF2F30361BE
:1033B80010BD53685168C3F38343CC0303F1020380
:1033C80002D408494B43D5E751688903F9D4024927
:1033D800F8E700BF0010024000127A004C000020FD
:1033E8004800002000093D00044B9A6911B11043C0
:1033F8009861704722EA0000FAE700BF0010024017
:10340800044BDA6911B11043D861704722EA000011
:10341800FAE700BF00100240044BDA6811B110430C
:10342800D860704722EA0000FAE700BF00100240A7
:10343800044B1A6911B110431861704722EA000061
:10344800FAE700BF001002404209012A074B07D1E2
:103458001B6800F01F0023FA00F000F0010070471D
:10346800022A0CBF1B6A5B6AF3E700BF0010024028
:1034780008B5614B98420BD101214FF40060FFF76A
:10348800CBFF00214FF40060BDE80840FFF7C4BF40
:10349800B0F1804F09D101210846FFF7C9FF00218B
:1034A8000120BDE80840FFF7C3BF544B984206D13E
:1034B80001210220FFF7BCFF00210220F1E7504B59
:1034C800984206D101210420FFF7B2FF0021042011
:1034D800E7E74C4B984206D101210820FFF7A8FFE7
:1034E80000210820DDE7484B984206D10121102031
:1034F800FFF79EFF00211020D3E7444B984206D1E6
:1035080001212020FFF794FF00212020C9E7404B2C
:10351800984208D101214FF40050FFF77DFF0021A8
:103528004FF40050B0E73B4B984208D101214FF4CB
:103538000020FFF771FF00214FF40020A4E7364B6D
:10354800984208D101214FF48010FFF765FF002150
:103558004FF4801098E7314B984208D101214FF47D
:103568000010FFF759FF00214FF400108CE72C4B97
:10357800984206D101214020FFF75AFF0021402040
:103588008FE7284B984206D101218020FFF750FF92
:103598000021802085E7244B984208D101214FF46F
:1035A8008070FFF745FF00214FF4807079E71F4BCB
:1035B800984208D101214FF48030FFF72DFF0021F8
:1035C8004FF4803060E71A4B984208D101214FF43C
:1035D8000030FFF721FF00214FF4003054E7154B6E
:1035E800984208D101214FF48020FFF715FF0021F0
:1035F8004FF4802048E708BD002C0140000400403B
:1036080000080040000C004000100040001400407A
:1036180000340140004C014000500140005401407A
:1036280000180040001C00400020004000400140FD
:103638000044014000480140224A038890429BB25E
:1036480012D002F5006290420ED0B0F1804F0BD03C
:10365800A2F59832904207D002F58062904203D0DA
:1036680002F58062904203D14A8823F07003134325
:10367800154A904208D002F5806290421FBF23F499
:103688004073CA889BB2134303808B8883850B8859
:1036980003850C4B98420FD003F5006398420BD07A
:1036A80003F54063984207D003F58063984203D03E
:1036B80003F58063984201D10B7A03860123838244
:1036C800704700BF002C014000100040038821B162
:1036D8009BB243F001030380704723F001031B04EE
:1036E8001B0CF8E783899BB212B11943818170479B
:1036F80023EA0101FAE7FFF7F5BF038A828911EA95
:10370800030092B203D0114214BF01200020704779
:10371800C94389B20182704708B5214B98420BD141
:1037280001214FF48040FFF777FEBDE808400021F3
:103738004FF48040FFF770BE1A4B98420BD101211D
:103748004FF40030FFF774FE00214FF40030BDE85D
:103758000840FFF76DBE144B984208D101214FF481
:103768008020FFF765FE00214FF48020EFE70F4B24
:10377800984208D101214FF40020FFF759FE00219B
:103788004FF40020E3E70A4B984208D101214FF497
:103798008010FFF74DFE00214FF48010D7E708BDD9
:1037A800003801400044004000480040004C004000
:1037B8000050004030B50D460446038A8A899BB202
:1037C800C98823F440530B4303828389A98823F4CF
:1037D800B05323F00C031B041B0C0B43298987B03F
:1037E8000B4369890B439BB28381838A9BB223F481
:1037F80040731343838201A8FFF7B2FD174A039B66
:103808000499944218BF19461922A3894A4313F40C
:10381800004F2B684FF0640514BF5B009B00B2FBA0
:10382800F3F1B1FBF5F3A2891801120405FB131398
:103838000BD5DA003232B2FBF5F202F0070242EAA7
:1038480000039BB2238107B030BD1B013233B3FBA9
:10385800F5F303F00F030343F3E700BF003801401B
:10386800838921B19BB243F400538381704723F4C9
:1038780000531B041B0CF8E701F01F0310B5C1F33C
:1038880042140121012C01FA03F105D10C3003681F
:103898003AB11943016010BD022C0CBF103014302E
:1038A800F5E723EA0101F5E7C1F3080181807047D4
:1038B8008088C0F3080070470388194214BF0120AC
:1038C80000207047C94389B2018070470123C1F3C2
:1038D800421210B5012A01F01F0403FA04F30ED1B5
:1038E800828992B21340028892B26BB10123090A0D
:1038F80003FA01F10A4214BF1846002010BD022A3B
:103908000CBF028A828AECE7184610BD10B504463F
:103918006FF00400FFF798FA054BE0081870C0EB49
:10392800401300EB8300034BC000188010BD00BF9C
:10393800481200204612002000220B4B1B885843D7
:103948000A4B58609A601A6842F001021A601A68B5
:1039580002F00112012AFAD01A6822F001021A6054
:1039680000229A60704700BF4612002010E000E075
:1039780070B5012186B006460420FFF735FD012108
:103988004FF48040FFF730FD4FF400730325ADF886
:1039980000301823214C694620468DF803308DF8F5
:1039A8000250FFF7F1FB4FF48063ADF800300423B9
:1039B800694620468DF80330FFF7E6FB0023ADF893
:1039C8000C30ADF80E30ADF81030ADF814300C23D3
:1039D80004F5405402A92046ADF812300296FFF7CC
:1039E800E9FE20460121FFF73BFF20464021FFF773
:1039F80069FF012240F225512046FFF73DFF2523AC
:103A08008DF80430012301A88DF805508DF8065073
:103A18008DF80730FFF7EAF906B070BD00080140DD
:103A280038B540F225513148FFF750FFA8B32F4869
:103A3800FFF73EFF2E4CC5B2B4F80838C3F30E03A7
:103A4800B3F5806F0EDB2B4800F008FB4FF4806263
:103A58000021204600F082FAB4F808386FF30E030C
:103A6800A4F80838B4F808381B040BD4B4F808389C
:103A7800B4F80828C3F30E03591C61F30E02A4F826
:103A88000828E554242D0ED101221B4B1A70B4F8D6
:103A980008386FF30E03A4F808384021BDE8384011
:103AA8001248FFF70FBF5D2DF7D15B21104800F0DA
:103AB80010FB0028F1D00E4B1846027801335B2A20
:103AC800FAD118460D4900F049FB4FF4007201463F
:103AD8000B4800F038FAB4F808386FF30E03A4F86E
:103AE8000838B4F8083843F40043D4E700380140F4
:103AF8004C120020AF8E0008581A0020BF8E000814
:103B08005416002070B500230D4606460146487835
:103B18004A1C2C2818D10133DBB2012B14D90B4CC9
:103B28004FF40072023104F5C16000F00CFA294626
:103B3800304600F013FB2946C4F80004002000F0CA
:103B48000DFBC4F8040470BD1146E0E74C120020D8
:103B580073B5002406460194FFF79CFB0120FFF78C
:103B6800B9FB174B1B6803F002030193019D022D5B
:103B780024D11020FFF77EF92846FFF771F9204677
:103B8800FFF7D0FB2046FFF7E1FB4FF48060FFF71B
:103B9800D3FB20463146FFF7A3FB0120FFF7AAFB22
:103BA8003920FFF751FC0028FAD00220FFF7A8FBC4
:103BB800FFF7B0FB0828FBD102B070BDFEE700BFDD
:103BC8000010024008B54FF4E010FFF7C1FF2420B1
:103BD800FFF79CFE4FF4A060FFF7FEF84FF6FF706A
:103BE800FEF7F2FBFEF714FC314800F037FA48F60E
:103BF8009F410A20FDF75AF94FF47A70FFF79CFEAF
:103C08002C4800F02BFA4FF47A70FFF795FE4FF42A
:103C18007A70FFF791FE4FF4E130FDF7E3FC4DF6C3
:103C2800DE644EF6EE654FF6FF76FEF7DFFBA04248
:103C38003AD014D84CF6CC43984232D04DF6DD53E6
:103C4800984229D045F65A239842EED1FEF7F8FB60
:103C58000028E8D04EF6EE60FEF7B6FBE3E7A84290
:103C68000BD0B04206D04EF6ED539842DDD1FFF7A7
:103C78005FF8D8E7FEF704FDD5E7FEF79FFD68B1CA
:103C8800BFF34F8F0C490D4BCA6802F4E06213432F
:103C9800CB60BFF34F8FFEE7FEF76CFD4FF6FF706A
:103CA800DAE7FEF76FFDF9E7FFF788F8F6E700BFF8
:103CB8006C9200087892000800ED00E00400FA0514
:103CC800DFF834D0002103E00C4B5B58435004313B
:103CD8000B480C4B42189A42F6D30B4A02E00023D9
:103CE80042F8043B094B9A42F9D300F079F800F006
:103CF800F7F8FFF767FF704700C0002090950008AD
:103D080000000020CC060020CC0600203423002030
:103D1800FEE7704708B5024800F0A0F9FEE700BFCB
:103D280088920008FEE7FEE7FEE770477047704795
:103D38007047000038B581B204460648FFF7B4FD65
:103D4800044D80212846FFF7B7FD0028F9D020460A
:103D580038BD00BF0038014070B50E4615460C4608
:103D6800A31B9D4201DC284670BD14F8010BFFF728
:103D7800E1FFF5E7044B0246196809B903491960E0
:103D8800186802441A6070475C1A00203423002027
:103D98005822024B4FF0FF301A607047242300204E
:103DA8005822024B4FF0FF301A607047242300203E
:103DB8005822024B00201A60704700BF24230020BD
:103DC8005822024B4FF0FF301A607047242300201E
:103DD8005822024B4FF0FF301A607047242300200E
:103DE800374B82B01A6842F001021A605968354AA6
:103DF8000A405A601A6822F0847222F480321A60EB
:103E08001A6822F480221A605A6822F4FE025A6064
:103E18004FF41F029A600022009201921A6842F43D
:103E280080321A601A6802F400320192009A013254
:103E38000092019A1AB9009AB2F5A06FF2D11A68E5
:103E480012F4003218BF01220192019A012A05D00A
:103E58004FF000621C4B9A6002B070471B4A116811
:103E680041F010011160116821F00301116011681F
:103E780041F0020111605A685A605A685A605A68DB
:103E880042F480625A605A6822F47C125A605A6876
:103E980042F4E8125A601A6842F080721A601A688E
:103EA8009201FCD55A6822F003025A605A6842F01F
:103EB80002025A605A6802F00C02082AFAD1C7E7CF
:103EC800001002400000FFF800ED00E00020024072
:103ED8000A22002100F018BA0A22002100F014BAC0
:103EE80070B500250C4E0D4CA41BA410A54209D199
:103EF80004F09CFF00250A4E0A4CA41BA410A542FE
:103F080005D170BD56F8253098470135EEE756F8CB
:103F1800253098470135F2E788950008889500080C
:103F2800889500088C95000810B501390244904224
:103F380001D1002010BD10F8013B11F8014FA34238
:103F4800F5D0181B10BD10B5431E0A44914200D18C
:103F580010BD11F8014B03F8014FF7E7034602447F
:103F6800934200D1704703F8011BF9E70FB40A4BDD
:103F780013B51C6824B1A36913B9204603F016FAD7
:103F880005AB049AA1682046019301F0A3F902B099
:103F9800BDE8104004B070475C00002030B505460D
:103FA80089B008460C46FCF73BF9284B0590069368
:103FB80001231844079304AB01930223049403904C
:103FC800029325B1AB6913B9284603F0EFF9AB6941
:103FD800AC6813B9284603F0E9F91D4B9C422AD175
:103FE8006C68636EDB0705D4A389980502D4A06DBD
:103FF80003F0FEFCB4F90C30990406D443F40053E2
:10400800A381636E23F400536366284601AA214600
:1040180003F060FB636E002814BF4FF0FF350A25DC
:10402800DA0705D4A3899B0502D4A06D03F0E1FC4F
:10403800284609B030BD074B9C4201D1AC68D0E797
:10404800054B9C4208BFEC68CBE700BF25910008F0
:10405800349300085493000814930008024B014657
:104068001868FFF79BBF00BF5C0000200EB44FF438
:10407800027100B59CB0ADF814106FF000410491C6
:1040880007914FF6FF711DAB02900690084853F850
:10409800042BADF81610006802A9019300F04AF944
:1040A8000022029B1A701CB05DF804EB03B0704745
:1040B8005C000020024610B513461C780132002C23
:1040C800FAD1013B11F8012B03F8012F002AF9D18D
:1040D80010BDC9B2034610F8012B1AB19142F9D1AB
:1040E8001846704700290CBF184600207047034641
:1040F80011F8012B03F8012B002AF9D17047034668
:1041080030B51C785D1C44B912F1FF3204D311F8A4
:10411800014B03F8014B14B930BD2B46F1E7002AD7
:10412800F2D11A70F0E7F0B5037833B103461846B8
:104138005E1C1B7833B91846F0BD0B78002B18BFEE
:104148000020F0BD4D1E441E15F8012F002AF3D0A3
:1041580014F8017F33469742F6D0E8E7144B2DE96F
:10416800F0411D680646D5F8E8400F46BCB9502016
:1041780003F0ACFCC5F8E800046044608460C460E7
:104188000461446184618462C46204634463846337
:10419800C463046444648464C46404774462D5F8E2
:1041A800E82039463046BDE8F041012300F002B866
:1041B8005C000020F0B518B9106808B9F0BD2046B9
:1041C80004460F4614F8015B17F8016B1EB965B970
:1041D80015602846F0BDB542F6D1002BEFD114602A
:1041E8000370F0BD1C460CE015B90E4614F8013BEF
:1041F80016F8015BAB42F7D1002BF3D0002304F88B
:10420800013C1460F0BD2DE9F84F8046894692467E
:104218001F468B465D460A9815F8014B03F0D4FB00
:104228002044467816F008060BD12D2C0BD1012618
:104238002C780BF1020567B1102F14D1302C0AD05D
:1042480011E0AB46E6E72B2C04BF2C780BF10205F6
:10425800F1E7302C27D12B7803F0DF03582B4BD113
:1042680010276C780235002E0CBF6FF000414FF01C
:1042780000410022B1FBF7FE104607FB1E1CA4F10B
:104288003003092B11D81C46A7421DDD531C07D04B
:10429800864516D301D1A44513DB012200FB074054
:1042A80015F8014BEBE70A27DDE7A4F14103192BC9
:1042B80001D8373CE8E7A4F16103192B04D8573C2F
:1042C800E2E74FF0FF32EBE7531C08D12223084600
:1042D800C8F80030BAF1000F07D1BDE8F88F06B171
:1042E8004042BAF1000F0CD022B1013DCAF800508B
:1042F800BDE8F88F4D46F9E73024002FB3D10827E1
:10430800B1E7BDE8F88F0000084B37B51C68084DC9
:10431800236A002B08BF2B46009313460A46014622
:104328002046FFF770FF03B030BD00BF5C000020DF
:10433800500100202DE9F04FBFB0894615461F46B1
:10434800824603F045FB036818461193FBF768FFA4
:10435800B9F80C300A901B0618D5D9F81030ABB94B
:104368004021504603F0BAFBC9F80000C9F8100014
:1043780048B90C23CAF800304FF0FF330B930B9861
:104388003FB0BDE8F08F4023C9F8143000232EACAD
:10439800219423932293099507930D930E931593D4
:1043A80014930B9312931393099D2B4613F8012B27
:1043B80012B1252A40F08380099BEE1A0DD084E8BB
:1043C8004800239B33442393229B0133072B2293DA
:1043D80077DC08340B9B33440B932B78002B00F0CD
:1043E80025870023691C1A464FF0FF3B1D460A200B
:1043F8008DF867300C934E1C09780996069106993A
:104408002039582900F21484DFE811F0A5001204BD
:104418001204AA0012041204120412041204120450
:10442800AD0065001204B500B8001204D500D8002C
:10443800D800D800D800D800D800D800D800D800B4
:1044480012041204120412041204120412041204B4
:10445800120412040C012201120422011204120493
:1044680012041204EB00120412043C031204120496
:10447800120412041204A403120412048500120484
:104488001204120412041204120412041204120474
:104498001204FE006B00220122012201EE006B00D3
:1044A80012041204F10012041E033E037203F80002
:1044B800120483031204A60312041204BE031D4649
:1044C80073E721AA4946504604F001FA002840F053
:1044D8008E862EAC7EE701232B2209998BE70F46A7
:1044E800FBE70BB18DF86720AE0640F1A1800737D6
:1044F80027F0070707F108030893D7E90067002E9C
:1045080077F1000305DA2D23764267EB47078DF82C
:1045180067300123C7E20BB18DF86720A04B1593D4
:10452800AB0640F13683073727F0070707F1080382
:104538000893D7E90067E8070BD556EA070308D0C0
:1045480030238DF868309DF8183045F002058DF855
:1045580069300223A4E2002ABFD101232022BCE74C
:1045680045F00105B9E73E68391D002E0C96B6DA0C
:104578000F4676420C9645F00405AEE709994E1CA5
:1045880009782A29069110D04FF0000B0996069950
:10459800303909293FF633AF00FB0B1B09990E464A
:1045A80016F8011B06910996F1E73968099641EA60
:1045B800E17B043791E745F080058EE700210C91F7
:1045C80006990C9E303900FB06110C9109990E468C
:1045D80016F8011B06910699099630390929EFD971
:1045E8000DE745F0080578E745F0400575E70999B6
:1045F80009786C2905D109990131099145F02005FF
:104608006BE745F0100568E700263B1D08933B68FB
:104618008DF867608DF890304FF0010B37460DF13B
:1046280090081CE10BB18DF8672045F010055BE799
:1046380015F0100F07F1040303D03E680893F7172D
:104648005DE73E6815F0400F089318BF36B2F6E7ED
:104658000BB18DF86720073727F0070707F1080324
:1046680008933B684FF0FF320D937B680D9F0E93C4
:104678000E9B384623F0004631464A4BFCF72AFA8F
:10468800002840F0DC854FF0FF32464B3846314673
:10469800FCF702FA002840F0D285129A139B0D9875
:1046A8000E99FCF7EFF910B12D238DF867303E4BCA
:1046B8003E4A06994FF0030B4729CCBF90469846CF
:1046C800002625F080053746C9E0BBF1FF3F26D01C
:1046D800069B23F02003472B04D1BBF1000F08BF32
:1046E8004FF0010B45F4807317930E9B1F1E0D9B13
:1046F800A8BF10970F93BDBF3B4603F1004310932B
:104708000023B8BF2D231693069B23F02007462FBE
:1047180008D0452F42D10BF10106022304E04FF0E7
:10472800060BDFE75E4603231FAA04921CAA039226
:104738001BAA02928DE848000F9A109B504601F080
:104748003BFF472F804602D1E80740F1858508EBFB
:104758000603462F079311D198F80030302B09D162
:10476800129A139B0F981099FCF782F910B9C6F1A9
:1047780001061B96079A1B9B1A440792129A139BD1
:104788000F981099FCF774F990B930221F9B07997C
:1047980099420FD9591C1F911A70F7E75E46BCE77A
:1047A800A4920008FFFFEF7F9492000898920008F7
:1047B800079B1F931F9B472FA3EB0803079340F00A
:1047C80000811B9BD91C02DB9B4580F22681069B3E
:1047D800023B06931B9A9DF81810531E002BA8BF86
:1047E8002B221B93BCBFC2F101032D22092B8DF88C
:1047F80074108DF8752040F300810A260DF18302AC
:1048080093FBF6F006FB1033092803F1300302F896
:10481800013C02F1FF31034600F3E880303301F830
:10482800013C023A0DF176030DF1830082421946EC
:10483800C0F0DE80079A1DABCB1A012A149303EB54
:10484800020B02DC15F0010702D000270A9B9B44EB
:10485800169B13B12D238DF867300026179D5E45F2
:104868003346B8BF5B460F939DF8673013B10F9B73
:1048780001330F9315F0020316931EBF0F9B0233EB
:104888000F9315F08403179318D10C9B0F9A9B1A5A
:10489800002B109312DD109B102BAB4B236000F301
:1048A800D981109B109A6360239B13442393229B06
:1048B8000133072B229300F3E68108349DF8673013
:1048C80073B10DF16703236001236360239B0133F8
:1048D8002393229B0133072B229300F3DE810834B4
:1048E800169B6BB11AAB236002236360239B0233D0
:1048F8002393229B0133072B229300F3D88108349A
:10490800179B802B18D10C9B0F9A9B1A002B109386
:1049180012DD109B102B8D4B236000F3D281109B6E
:10492800109A6360239B13442393229B0133072B24
:10493800229300F3DF810834A6EB0B06002E0FDD6F
:10494800824B102E236000F3DF81229B23980133D2
:104958006660072B06442396229300F3EC81083403
:10496800EB0500F1F281239B84E800095B44239363
:10497800229B0133072B229340F3198421AA49462D
:10498800504603F0A4FF002840F031842EAC6B079A
:1049980000F110840B9B0C9A0F998A42ACBF9B18AC
:1049A8005B180B93239B3BB121AA4946504603F061
:1049B8008EFF002840F01B840023089F22932EAC12
:1049C800F2E4069B652B7FF705AF069B662B24D187
:1049D8001B9B002B19DDBBF1000F01D1EA0702D5A3
:1049E8000A9A13445B441B9F9B4631E70A4607E734
:1049F80012F8011B03F8011B18E7302213448DF845
:104A080076208DF877301EA914E7BBF1000F01D18D
:104A1800EB0715D50A9B0133E4E71B9A079B9A42DB
:104A280006DBEF070ED50A9B134467220692DAE7E6
:104A3800079B0A99002A0B44F7DCC2F10102F3E74D
:104A48000123D0E71346F0E70BB18DF8672015F086
:104A5800200F07F1040308D00B993A68CE170846CF
:104A68003146C2E900011F469EE4EE0603D53A68C6
:104A78000B991160F7E76806F9D53A68BDF82C106C
:104A88001180F0E745F0100515F0200322D0073714
:104A980027F0070707F108030893D7E90067002301
:104AA80000228DF86720BBF1FF3F00F0DB8325F083
:104AB80080020F9256EA070240F0D983BBF1000F3B
:104AC80000F0AA80012B76D0022B00F091800026FE
:104AD8000027D2E33A1D15F01001089202D03E6873
:104AE8000027DDE715F04003F9D03E880027D6E718
:104AF8003B1D0893302378228DF86830144B3E68AC
:104B08001593002745F002058DF8692002230692C7
:104B1800C6E700263B1DBBF1FF3F0893D7F800808E
:104B28008DF867600AD05A463146404603F0F4F9DA
:104B3800002800F08D80A0EB080BC4E54046FBF789
:104B48006FFB8346BFE500BFC6920008D6920008F7
:104B5800B592000845F01005A90609D5073727F0D2
:104B6800070707F108030893D7E90067012397E7C8
:104B78003B1D15F0100F089301D03E6802E06A064D
:104B8800FBD53E880027F1E70BB18DF86720A34BD2
:104B9800C5E43B1D15F0100F089301D03E6802E0F4
:104BA8006E06FBD53E880027C5E4434666E3002F22
:104BB80008BF0A2E05D230360DF1F80808F8416D05
:104BC80077E30DF1B808304639460A220023FBF78F
:104BD800BFFF303208F8012D0023304639460A223B
:104BE800FBF7B6FF06460F4656EA0703EBD160E32C
:104BF800002600270DF1B808159A06F00F03D35CBC
:104C08003A0908F8013D330943EA07731E46174677
:104C180056EA0703F0D14CE33BB9EA0705D5302340
:104C28000DF1F80808F8413D43E30DF1B80840E3F9
:104C38000BB18DF86720069B002B00F0F782002649
:104C48009DF818308DF867608DF890300897E3E488
:104C5800064638E510236360239B10332393229B79
:104C68000133072B229304DC0834109B103B10936C
:104C780011E621AA4946504603F029FE002840F0D3
:104C8800B6822EACF1E721AA4946504603F01FFE32
:104C9800002840F0AC822EAC10E621AA49465046C6
:104CA80003F015FE002840F0A2822EAC18E621AAD7
:104CB8004946504603F00BFE002840F098822EAC7F
:104CC8001EE610236360239B10332393229B01333A
:104CD800072B229304DC0834109B103B109318E632
:104CE80021AA4946504603F0F2FD002840F07F8291
:104CF8002EACF1E721AA4946504603F0E8FD00280A
:104D080040F075822EAC17E610236360239B1033A6
:104D18002393229B0133072B229302DC0834103E95
:104D28000EE621AA4946504603F0D1FD002840F07E
:104D38005E822EACF3E721AA4946504603F0C7FD30
:104D4800002840F054822EAC0AE6069B652B40F3FF
:104D5800A981129A139B0D980E99FBF789FE0028DA
:104D680062D02F4B236001236360239B013323937D
:104D7800229B0133072B229325DC08341B9B079ABF
:104D8800934202DBEE077FF502AE119B0A9A23607D
:104D98000A9B6360239B13442393229B0133072BB5
:104DA80022931ADC0834079B5E1E002E7FF7EFADB6
:104DB8004FF010081B4F102E276018DC6660239BED
:104DC8001E442396D4E521AA4946504603F07FFDA8
:104DD800002840F00C822EACD0E721AA4946504664
:104DE80003F075FD002840F002822EACDBE7239B20
:104DF800C4F8048010332393229B0133072B22939A
:104E080002DC0834103ED6E721AA4946504603F092
:104E18005EFD002840F0EB812EACF3E7B592000868
:104E2800908F0008D69200081B9B002B7ADC9B4BC6
:104E3800236001236360239B01332393229B013367
:104E4800072B229344DC08341B9B23B9079B13B917
:104E5800E8077FF59CAD119B0A9A23600A9B636063
:104E6800239B13442393229B0133072B229339DC82
:104E780004F108031B9E002E19DA1024884F76428D
:104E8800102E1F6038DC239A5E601644229A2396FF
:104E98000132072A03F10803229208DD21AA4946B4
:104EA800504603F014FD002840F0A1812EAB079A6C
:104EB80007995A60239AC3F800800A442392229AD9
:104EC8000132072A22923FF759AD03F108045EE543
:104ED80021AA4946504603F0FAFC002840F0878191
:104EE8002EACB1E721AA4946504603F0F0FC002851
:104EF80040F07D812EABBDE7239A5C60103223928F
:104F0800229A0132072A229202DC0833103EB7E7C0
:104F180021AA4946504603F0DAFC002840F0678190
:104F28002EABF3E7079BBB42A8BF3B46002B1E46B0
:104F38000BDD6360239BC4F8008033442393229BDA
:104F48000133072B22935FDC0834002EB4BF3E46A2
:104F5800BE1B002E0FDDDFF848B1102EC4F800B0DC
:104F68005CDC239B66601E44229B23960133072B3F
:104F780022936ADC08341B9B079A934201DBE907FA
:104F88000DD5119B0A9A23600A9B6360239B1344E7
:104F98002393229B0133072B229360DC0834079B61
:104FA800079ADE1B1B9BD31A9E42A8BF1E46002EE3
:104FB8000BDD239B474433442393229B2760013313
:104FC800072B6660229354DC08341B9B079A002E3B
:104FD800A2EB0303B4BF1E469E1B002E7FF7D7AC7F
:104FE8004FF010082E4F102E27607FF7E7AE239B57
:104FF800C4F8048010332393229B0133072B229398
:1050080041DC0834103EEEE721AA4946504603F039
:105018005EFC002840F0EB802EAC96E7102363601E
:10502800239B10332393229B0133072B229302DC0B
:105038000834103E91E721AA4946504603F047FC40
:10504800002840F0D4802EACF3E721AA4946504608
:1050580003F03DFC002840F0CA802EAC8BE721AA63
:105068004946504603F033FC002840F0C0802EAC7F
:1050780095E721AA4946504603F029FC002840F04C
:10508800B6802EACA1E721AA4946504603F01FFC82
:10509800002840F0AC802EACB4E700BF908F000829
:1050A800D6920008079B012B01DCEA0776D501237D
:1050B8006360239BC4F8008001332393229B013350
:1050C800072B229336DC0834119B0A9A23600A9B2B
:1050D8006360239B13442393229B0133072B229362
:1050E80031DC0834139B129A0D980E99FBF7C0FC1B
:1050F800079B5E1E00282FD108F1010384E84800B1
:10510800239B079A013B13442393229B0133072BCC
:1051180022934ADD21AA4946504603F0D8FB0028CD
:1051280065D12EAC1DAB2360149B149A6360239B3E
:1051380013441CE421AA4946504603F0C8FB002842
:1051480055D12EACC0E721AA4946504603F0BFFB13
:1051580000284CD12EACC5E7002EE3DD4FF0100837
:10516800584F102E276004DC239B66601E4423964C
:10517800CBE7239BC4F8048010332393229B01338D
:10518800072B229302DC0834103EEAE721AA49469D
:10519800504603F09CFB50BB2EACF5E7012363603F
:1051A800239BC4F800800133AEE70834BAE708341B
:1051B800FFF7EDBB0C9B0F9A9D1A002D7FF7EAAB0A
:1051C8001026414B102D23601BDC239B65601D447A
:1051D800229B23950133072B22937FF7DBAB21AA70
:1051E8004946504603F073FB00283FF4D3ABB9F8A7
:1051F8000C3013F0400F0B9B18BF4FF0FF33FFF735
:10520800BDB8239B666010332393229B0133072B81
:10521800229302DC0834103DD3E721AA49465046C0
:1052280003F055FB0028E2D12EACF4E7239B002BBA
:10523800DDD021AA4946504603F049FBD7E70D9A2D
:105248000E9B0D980E99FBF745FC00283FF43DAAEC
:105258001E4B1F4AFFF72DBA1F9BA3EB08030793AA
:10526800FFF7AFBA56EA07020F953FF42BAC012BB4
:105278003FF49DAC022B3FF4BDAC2EABF10841EAE4
:105288004771F80806F0070207460E46303256EA1C
:10529800070103F1FF3803F8012C7FF486AC0F995E
:1052A800C90706D5302A04D0302208F8012CA3F10A
:1052B80002082EAB5E460F9DA3EB080B0027FFF7F5
:1052C800CEBA00BFD6920008C69200089C92000889
:1052D800A09200082DE9F04FBFB00D4616461C46B7
:1052E8001F46814602F074FB036818461193FAF7CB
:1052F80097FF0B90B9F1000F05D0D9F8183013B902
:10530800484602F053F88F4B9D422CD1D9F80450EF
:105318006B6ED80705D4AB89990502D4A86D02F045
:1053280067FBB5F90C309A0406D443F40053AB81FB
:105338006B6E23F400536B66AB891B0701D52B6991
:10534800EBB92946484601F03BF8C0B16B6ED80767
:1053580005D4AB89990502D4A86D02F04AFB4FF039
:10536800FF330C9323E0784B9D4202D1D9F80850C3
:10537800CEE7764B9D4208BFD9F80C50C8E7AB89F9
:1053880003F01A020A2A16D1B5F90E20002A12DBF8
:105398006A6ED20704D49F0502D4A86D02F029FBD7
:1053A800234632462946484600F0CAFF0C900C981E
:1053B8003FB0BDE8F08F00232EAC219423932293B5
:1053C800099607930E930F93159314930C931293C6
:1053D8001393099E334613F8012B12B1252A40F086
:1053E8008480099BB6EB03080DD084E80801239B51
:1053F80043442393229B0133072B229377DC083401
:105408000C9B43440C933378002B00F03F87002318
:105418004FF0FF3B1A469A460A2001368DF867304E
:105428000D93711C099131780691069920395829F4
:1054380000F22484DFE811F0AE0022042204B30055
:10544800220422042204220422042204B600650055
:105458002204BE00C1002204DE00E100E100E100F8
:10546800E100E100E100E100E100E10022042204A2
:1054780022042204220422042204220422042204F4
:1054880015012B0122042B012204220422042204E8
:10549800F4002204220449032204220422042204E0
:1054A8002204B003220422048C00220422042204D1
:1054B80022042204220422042204220422040701D2
:1054C8006B002B012B012B01F7006B002204220437
:1054D800FA00220429034B037F03010122049003ED
:1054E8002204B20322042204CC031E4672E721AA36
:1054F8002946484603F065FA002840F0A3862EACFA
:105508007EE701232B22099E8BE70F46FBE70BB1B1
:105518008DF867201AF0200F00F0A980073727F0D0
:10552800070707F108030893D7E90067002E77F10A
:10553800000305DA2D23764267EB47078DF86730BD
:105548000123D3E23493000854930008149300080D
:105558000BB18DF86720A24B1AF0200F159300F0BD
:105568003C83073727F0070707F108030893D7E9B3
:1055780000671AF0010F0BD056EA070308D0302352
:105588008DF868309DF818304AF0020A8DF86930B5
:105598000223A8E2002AB6D101232022B3E74AF069
:1055A800010AB0E73E68391D002E0D96ADDA0F46A8
:1055B80076420D964AF0040AA5E709994E1C097827
:1055C8002A29069110D04FF0000B09960699303918
:1055D80009293FF62AAF00FB0B1B09990E4616F85E
:1055E800011B06910996F1E73968099641EAE17BC2
:1055F800043788E74AF0800A85E700210D9106996B
:105608000D9E303900FB06110D9109990E4616F8CA
:10561800011B06910699099630390929EFD904E743
:105628004AF0080A6FE74AF0400A6CE709990978D6
:105638006C2905D10999013109914AF0200A62E7DC
:105648004AF0100A5FE700263B1D08933B688DF877
:1056580067608DF890304FF0010B0A960DF19008B5
:1056680020E10BB18DF867204AF0100A52E71AF0D2
:10567800100F07F1040303D03E680893F71755E7A6
:105688003E681AF0400F089318BF36B2F6E70BB120
:105698008DF86720073727F0070707F108030893F5
:1056A8003B684FF0FF320E937B680E9F0F930F9B62
:1056B800384623F0004631464A4BFBF70BFA0028E0
:1056C80040F0F1854FF0FF32464B38463146FBF744
:1056D800E3F9002840F0E785129A139B0E980F997A
:1056E800FBF7D0F910B12D238DF867303E4B3F4AB8
:1056F80006994FF0030B4729CCBF904698460026E1
:105708002AF0800A0A96CDE0BBF1FF3F26D0069B1F
:1057180023F02003472B04D1BBF1000F08BF4FF043
:10572800010B4AF4807317930F9B1F1E0E9BA8BF93
:1057380010970A93BDBF3B4603F100431093002323
:10574800B8BF2D231693069B23F02007462F08D0B9
:10575800452F43D10BF10106022304E04FF0060B5D
:10576800DFE75E4603231FAA04921CAA03921BAA22
:1057780002928DE848000A9A109B484600F01CFFE8
:10578800472F804603D11AF0010F00F0998508EBE6
:105798000603462F079311D198F80030302B09D112
:1057A800129A139B0A981099FBF762F910B9C6F17F
:1057B80001061B96079A1B9B1A440792129A139B81
:1057C8000A981099FBF754F990B930221F9B079952
:1057D80099420FD9591C1F911A70F7E75E46BBE72B
:1057E800A4920008FFFFEF7F9492000898920008A7
:1057F800079B1F931F9B472FA3EB0803079340F0BA
:10580800FD801B9BDE1C02DB9B4580F22681069BEC
:10581800023B06931B9A9DF81810531E002BA8BF35
:105828002B221B93BCBFC2F101032D22092B8DF83B
:1058380074108DF8752040F3FF800A260DF183025D
:1058480093FBF6F006FB1033092803F1300302F846
:10585800013C02F1FF31034600F3E780303301F8E1
:10586800013C023A0DF176030DF18300824219469C
:10587800C0F0DD80079A1DABCB1A012A149303EB05
:10588800020B03DC1AF001030A9303D00B9B9B4421
:1058980000230A93169B13B12D238DF86730002639
:1058A800DDF85CA05E453346B8BF5B4610939DF8B3
:1058B800673013B1109B013310931AF0020316934B
:1058C8001EBF109B023310931AF08403179314D150
:1058D8000D9B109A9F1A002F0FDDAC4B102F2360E1
:1058E80000F3DE81239B67601F44229B23970133CB
:1058F800072B229300F3EB8108349DF8673073B1CE
:105908000DF16703236001236360239B0133239315
:10591800229B0133072B229300F3E3810834169B63
:105928006BB11AAB236002236360239B023323937A
:10593800229B0133072B229300F3DD810834179B48
:10594800802B14D10D9B109A9F1A002F0FDD904BBE
:10595800102F236000F3D981239B67601F44229B8B
:1059680023970133072B229300F3E6810834A6EB33
:105978000B06002E0FDD864F102E276000F3E68100
:10598800229B239801336660072B064423962293B3
:1059980000F3F38108341AF4807F40F0F881239BE8
:1059A80084E800095B442393229B0133072B22934D
:1059B80040F3288421AA2946484603F002F8002823
:1059C80040F040842EAC1AF0040F40F01E840C9B6B
:1059D8000D9A10998A42ACBF9B185B180C93239BB5
:1059E8003BB121AA2946484602F0EBFF002840F0C7
:1059F80029840023089F22932EACEAE4069B652B9A
:105A08007FF708AF069B662B27D11B9B002B1BDD5E
:105A1800BBF1000F02D11AF0010F02D00B9A134408
:105A28005B441B9A9B460A9234E70A4608E712F839
:105A3800011B03F8011B19E7302213448DF8762067
:105A48008DF877301EA915E7BBF1000F02D11AF0C7
:105A5800010F16D00B9B0133E2E71B9A079B9A4272
:105A680007DB1AF0010F0ED00B9B13446722069236
:105A7800D7E7079B0B99002A0B44F7DCC2F1010218
:105A8800F3E70123CDE71346F0E70BB18DF8672064
:105A98001AF0200F07F1040308D00C993A68CF17C1
:105AA80008463946C2E900011F4692E41AF0100F71
:105AB80003D03A680C991160F6E71AF0400FF8D055
:105AC8003A68BDF830101180EEE74AF0100A1AF073
